{
  "contractName": "SimpleCoinFlip",
  "abi": [
    {
      "anonymous": false,
      "inputs": [
        {
          "indexed": false,
          "internalType": "bool",
          "name": "didWin",
          "type": "bool"
        },
        {
          "indexed": false,
          "internalType": "uint256",
          "name": "winning",
          "type": "uint256"
        },
        {
          "indexed": false,
          "internalType": "string",
          "name": "uuid",
          "type": "string"
        },
        {
          "indexed": false,
          "internalType": "address",
          "name": "gambler",
          "type": "address"
        }
      ],
      "name": "FlipOutcome",
      "type": "event"
    },
    {
      "payable": true,
      "stateMutability": "payable",
      "type": "fallback"
    },
    {
      "constant": true,
      "inputs": [],
      "name": "getCurrentJackpot",
      "outputs": [
        {
          "internalType": "uint256",
          "name": "",
          "type": "uint256"
        }
      ],
      "payable": false,
      "stateMutability": "view",
      "type": "function"
    },
    {
      "constant": false,
      "inputs": [
        {
          "internalType": "string",
          "name": "uuid",
          "type": "string"
        }
      ],
      "name": "bet",
      "outputs": [
        {
          "internalType": "bool",
          "name": "",
          "type": "bool"
        }
      ],
      "payable": true,
      "stateMutability": "payable",
      "type": "function"
    }
  ],
  "bytecode": "0x608060405234801561001057600080fd5b506106dd806100206000396000f3fe6080604052600436106100295760003560e01c8063740305311461002b5780639f57d16e146100fe575b005b6100e46004803603602081101561004157600080fd5b810190808035906020019064010000000081111561005e57600080fd5b82018360208201111561007057600080fd5b8035906020019184600183028401116401000000008311171561009257600080fd5b91908080601f016020809104026020016040519081016040528093929190818152602001838380828437600081840152601f19601f820116905080830192505050505050509192919290505050610129565b604051808215151515815260200191505060405180910390f35b34801561010a57600080fd5b50610113610456565b6040518082815260200191505060405180910390f35b6000343373ffffffffffffffffffffffffffffffffffffffff1631101561019b576040517f08c379a000000000000000000000000000000000000000000000000000000000815260040180806020018281038252603e81526020018061066b603e913960400191505060405180910390fd5b6101a3610456565b3373ffffffffffffffffffffffffffffffffffffffff16311015610212576040517f08c379a00000000000000000000000000000000000000000000000000000000081526004018080602001828103825260228152602001806106286022913960400191505060405180910390fd5b600061021c61047f565b141561036757600061022f346002610491565b90503373ffffffffffffffffffffffffffffffffffffffff166108fc829081150290604051600060405180830381858888f19350505050158015610277573d6000803e3d6000fd5b507f90dc2c0f0306197d619222f094a8e1efa09f84bf44ac091c75326d1ce445da5f60018285336040518085151515158152602001848152602001806020018373ffffffffffffffffffffffffffffffffffffffff1673ffffffffffffffffffffffffffffffffffffffff168152602001828103825284818151815260200191508051906020019080838360005b83811015610320578082015181840152602081019050610305565b50505050905090810190601f16801561034d5780820380516001836020036101000a031916815260200191505b509550505050505060405180910390a16001915050610451565b7f90dc2c0f0306197d619222f094a8e1efa09f84bf44ac091c75326d1ce445da5f60008084336040518085151515158152602001848152602001806020018373ffffffffffffffffffffffffffffffffffffffff1673ffffffffffffffffffffffffffffffffffffffff168152602001828103825284818151815260200191508051906020019080838360005b8381101561040f5780820151818401526020810190506103f4565b50505050905090810190601f16801561043c5780820380516001836020036101000a031916815260200191505b509550505050505060405180910390a1600090505b919050565b600061047a3073ffffffffffffffffffffffffffffffffffffffff16316004610517565b905090565b60006002428161048b57fe5b06905090565b6000808314156104a45760009050610511565b60008284029050828482816104b557fe5b041461050c576040517f08c379a000000000000000000000000000000000000000000000000000000000815260040180806020018281038252602181526020018061064a6021913960400191505060405180910390fd5b809150505b92915050565b600061055983836040518060400160405280601a81526020017f536166654d6174683a206469766973696f6e206279207a65726f000000000000815250610561565b905092915050565b6000808311829061060d576040517f08c379a00000000000000000000000000000000000000000000000000000000081526004018080602001828103825283818151815260200191508051906020019080838360005b838110156105d25780820151818401526020810190506105b7565b50505050905090810190601f1680156105ff5780820380516001836020036101000a031916815260200191505b509250505060405180910390fd5b50600083858161061957fe5b04905080915050939250505056fe53656e6465722773206265742063616e6e6f7420657863656564206a61636b706f74536166654d6174683a206d756c7469706c69636174696f6e206f766572666c6f7753656e646572206d757374206861766520612062616c616e63652067726561746572207468616e206f7220657175616c20746f207468656972206265742ea265627a7a72315820ad4dc21d26a9d851b7c5dce1c81b62ff1b7db73f9968d1c762bd7ee299df654064736f6c634300050c0032",
  "source": "pragma solidity 0.5.12;\n\nimport \"./SafeMath.sol\";\n\ncontract SimpleCoinFlip {\n\n    event FlipOutcome(bool didWin, uint winning, string uuid, address gambler);\n\n    function random() private view returns (uint) {\n        return block.timestamp % 2;\n    }\n\n    function getCurrentJackpot() public view returns (uint) {\n        return SafeMath.div(address(this).balance, 4);\n    }\n\n    function bet(string memory uuid) public payable returns (bool) {\n        require(msg.sender.balance >= msg.value, \"Sender must have a balance greater than or equal to their bet.\");\n        require(msg.sender.balance >= getCurrentJackpot(), \"Sender's bet cannot exceed jackpot\");\n\n        if (random() == 0) {\n            // Win\n            uint winning = SafeMath.mul(msg.value, 2);\n            msg.sender.transfer(winning);\n            emit FlipOutcome(true, winning, uuid, msg.sender);\n            return true;\n        } else {\n            emit FlipOutcome(false, 0, uuid, msg.sender);\n            return false;\n        }\n    }\n\n    function () external payable {}\n}\n",
  "sourcePath": "/Users/davidsalgado/code/ethereum-course-advanced/SimpleCoinFlipDapp/contracts/SimpleCoinFlip.sol",
  "compiler": {
    "name": "solc",
    "version": "0.5.12+commit.7709ece9.Emscripten.clang"
  },
  "schemaVersion": "3.0.16",
  "updatedAt": "2020-08-04T20:26:59.048Z",
  "devdoc": {
    "methods": {}
  },
  "userdoc": {
    "methods": {}
  }
}