{
  "contractName": "SimpleCoinFlip",
  "abi": [
    {
      "payable": true,
      "stateMutability": "payable",
      "type": "fallback"
    },
    {
      "constant": true,
      "inputs": [],
      "name": "random",
      "outputs": [
        {
          "internalType": "uint256",
          "name": "",
          "type": "uint256"
        }
      ],
      "payable": false,
      "stateMutability": "view",
      "type": "function"
    },
    {
      "constant": true,
      "inputs": [],
      "name": "getPotentialWinnings",
      "outputs": [
        {
          "internalType": "uint256",
          "name": "",
          "type": "uint256"
        }
      ],
      "payable": false,
      "stateMutability": "view",
      "type": "function"
    }
  ],
  "bytecode": "0x608060405234801561001057600080fd5b50610201806100206000396000f3fe6080604052600436106100295760003560e01c80633e39eca51461002b5780635ec01e4d14610056575b005b34801561003757600080fd5b50610040610081565b6040518082815260200191505060405180910390f35b34801561006257600080fd5b5061006b6100aa565b6040518082815260200191505060405180910390f35b60006100a53073ffffffffffffffffffffffffffffffffffffffff163160026100bc565b905090565b6000600242816100b657fe5b06905090565b60006100fe83836040518060400160405280601a81526020017f536166654d6174683a206469766973696f6e206279207a65726f000000000000815250610106565b905092915050565b600080831182906101b2576040517f08c379a00000000000000000000000000000000000000000000000000000000081526004018080602001828103825283818151815260200191508051906020019080838360005b8381101561017757808201518184015260208101905061015c565b50505050905090810190601f1680156101a45780820380516001836020036101000a031916815260200191505b509250505060405180910390fd5b5060008385816101be57fe5b04905080915050939250505056fea265627a7a72315820f048aca0c573f31228d6fa96cbb228041d7923df1147869dd85faaf97c6a638764736f6c634300050c0032",
  "source": "pragma solidity 0.5.12;\n\nimport \"./SafeMath.sol\";\n\ncontract SimpleCoinFlip {\n\n    function random() public view returns (uint) {\n        return block.timestamp % 2;\n    }\n\n    function getPotentialWinnings() public view returns (uint) {\n        return SafeMath.div(address(this).balance, 2);\n    }\n\n    function () external payable {}\n}\n",
  "sourcePath": "/Users/davidsalgado/code/ethereum-course-advanced/SimpleCoinFlipDapp/contracts/SimpleCoinFlip.sol",
  "compiler": {
    "name": "solc",
    "version": "0.5.12+commit.7709ece9.Emscripten.clang"
  },
  "schemaVersion": "3.0.16",
  "updatedAt": "2020-07-29T14:17:56.404Z",
  "devdoc": {
    "methods": {}
  },
  "userdoc": {
    "methods": {}
  }
}